{
  "_format": "hh-sol-artifact-1",
  "contractName": "Messages",
  "sourceName": "contracts/Messages.sol",
  "abi": [
    {
      "inputs": [
        {
          "internalType": "string",
          "name": "_content",
          "type": "string"
        },
        {
          "internalType": "string",
          "name": "_author",
          "type": "string"
        }
      ],
      "name": "addMessage",
      "outputs": [],
      "stateMutability": "nonpayable",
      "type": "function"
    },
    {
      "inputs": [
        {
          "internalType": "string",
          "name": "_author",
          "type": "string"
        }
      ],
      "name": "addParticipant",
      "outputs": [],
      "stateMutability": "nonpayable",
      "type": "function"
    },
    {
      "inputs": [],
      "name": "messageCount",
      "outputs": [
        {
          "internalType": "uint256",
          "name": "",
          "type": "uint256"
        }
      ],
      "stateMutability": "view",
      "type": "function"
    },
    {
      "inputs": [
        {
          "internalType": "uint256",
          "name": "",
          "type": "uint256"
        }
      ],
      "name": "messages",
      "outputs": [
        {
          "internalType": "uint256",
          "name": "id",
          "type": "uint256"
        },
        {
          "internalType": "string",
          "name": "author",
          "type": "string"
        },
        {
          "internalType": "string",
          "name": "content",
          "type": "string"
        }
      ],
      "stateMutability": "view",
      "type": "function"
    },
    {
      "inputs": [],
      "name": "participantCount",
      "outputs": [
        {
          "internalType": "uint256",
          "name": "",
          "type": "uint256"
        }
      ],
      "stateMutability": "view",
      "type": "function"
    },
    {
      "inputs": [
        {
          "internalType": "uint256",
          "name": "",
          "type": "uint256"
        }
      ],
      "name": "participants",
      "outputs": [
        {
          "internalType": "uint256",
          "name": "id",
          "type": "uint256"
        },
        {
          "internalType": "string",
          "name": "author",
          "type": "string"
        }
      ],
      "stateMutability": "view",
      "type": "function"
    }
  ],
  "bytecode": "0x608060405260008055600060015534801561001957600080fd5b50610b46806100296000396000f3fe608060405234801561001057600080fd5b50600436106100625760003560e01c80630d80fefd1461006757806335c1d34914610099578063362f04c0146100ca578063364de8b6146100e85780633dbcc8d114610104578063631e0c6914610122575b600080fd5b610081600480360381019061007c9190610469565b61013e565b60405161009093929190610535565b60405180910390f35b6100b360048036038101906100ae9190610469565b610278565b6040516100c192919061057a565b60405180910390f35b6100d2610324565b6040516100df91906105aa565b60405180910390f35b61010260048036038101906100fd91906106fa565b61032a565b005b61010c610394565b60405161011991906105aa565b60405180910390f35b61013c60048036038101906101379190610743565b61039a565b005b6003602052806000526040600020600091509050806000015490806001018054610167906107ea565b80601f0160208091040260200160405190810160405280929190818152602001828054610193906107ea565b80156101e05780601f106101b5576101008083540402835291602001916101e0565b820191906000526020600020905b8154815290600101906020018083116101c357829003601f168201915b5050505050908060020180546101f5906107ea565b80601f0160208091040260200160405190810160405280929190818152602001828054610221906107ea565b801561026e5780601f106102435761010080835404028352916020019161026e565b820191906000526020600020905b81548152906001019060200180831161025157829003601f168201915b5050505050905083565b60026020528060005260406000206000915090508060000154908060010180546102a1906107ea565b80601f01602080910402602001604051908101604052809291908181526020018280546102cd906107ea565b801561031a5780601f106102ef5761010080835404028352916020019161031a565b820191906000526020600020905b8154815290600101906020018083116102fd57829003601f168201915b5050505050905082565b60015481565b6001600081548092919061033d9061084a565b9190505550604051806040016040528060015481526020018281525060026000600154815260200190815260200160002060008201518160000155602082015181600101908161038d9190610a3e565b5090505050565b60005481565b6000808154809291906103ac9061084a565b9190505550604051806060016040528060005481526020018281526020018381525060036000805481526020019081526020016000206000820151816000015560208201518160010190816104019190610a3e565b5060408201518160020190816104179190610a3e565b509050505050565b6000604051905090565b600080fd5b600080fd5b6000819050919050565b61044681610433565b811461045157600080fd5b50565b6000813590506104638161043d565b92915050565b60006020828403121561047f5761047e610429565b5b600061048d84828501610454565b91505092915050565b61049f81610433565b82525050565b600081519050919050565b600082825260208201905092915050565b60005b838110156104df5780820151818401526020810190506104c4565b60008484015250505050565b6000601f19601f8301169050919050565b6000610507826104a5565b61051181856104b0565b93506105218185602086016104c1565b61052a816104eb565b840191505092915050565b600060608201905061054a6000830186610496565b818103602083015261055c81856104fc565b9050818103604083015261057081846104fc565b9050949350505050565b600060408201905061058f6000830185610496565b81810360208301526105a181846104fc565b90509392505050565b60006020820190506105bf6000830184610496565b92915050565b600080fd5b600080fd5b7f4e487b7100000000000000000000000000000000000000000000000000000000600052604160045260246000fd5b610607826104eb565b810181811067ffffffffffffffff82111715610626576106256105cf565b5b80604052505050565b600061063961041f565b905061064582826105fe565b919050565b600067ffffffffffffffff821115610665576106646105cf565b5b61066e826104eb565b9050602081019050919050565b82818337600083830152505050565b600061069d6106988461064a565b61062f565b9050828152602081018484840111156106b9576106b86105ca565b5b6106c484828561067b565b509392505050565b600082601f8301126106e1576106e06105c5565b5b81356106f184826020860161068a565b91505092915050565b6000602082840312156107105761070f610429565b5b600082013567ffffffffffffffff81111561072e5761072d61042e565b5b61073a848285016106cc565b91505092915050565b6000806040838503121561075a57610759610429565b5b600083013567ffffffffffffffff8111156107785761077761042e565b5b610784858286016106cc565b925050602083013567ffffffffffffffff8111156107a5576107a461042e565b5b6107b1858286016106cc565b9150509250929050565b7f4e487b7100000000000000000000000000000000000000000000000000000000600052602260045260246000fd5b6000600282049050600182168061080257607f821691505b602082108103610815576108146107bb565b5b50919050565b7f4e487b7100000000000000000000000000000000000000000000000000000000600052601160045260246000fd5b600061085582610433565b91507fffffffffffffffffffffffffffffffffffffffffffffffffffffffffffffffff82036108875761088661081b565b5b600182019050919050565b60008190508160005260206000209050919050565b60006020601f8301049050919050565b600082821b905092915050565b6000600883026108f47fffffffffffffffffffffffffffffffffffffffffffffffffffffffffffffffff826108b7565b6108fe86836108b7565b95508019841693508086168417925050509392505050565b6000819050919050565b600061093b61093661093184610433565b610916565b610433565b9050919050565b6000819050919050565b61095583610920565b61096961096182610942565b8484546108c4565b825550505050565b600090565b61097e610971565b61098981848461094c565b505050565b5b818110156109ad576109a2600082610976565b60018101905061098f565b5050565b601f8211156109f2576109c381610892565b6109cc846108a7565b810160208510156109db578190505b6109ef6109e7856108a7565b83018261098e565b50505b505050565b600082821c905092915050565b6000610a15600019846008026109f7565b1980831691505092915050565b6000610a2e8383610a04565b9150826002028217905092915050565b610a47826104a5565b67ffffffffffffffff811115610a6057610a5f6105cf565b5b610a6a82546107ea565b610a758282856109b1565b600060209050601f831160018114610aa85760008415610a96578287015190505b610aa08582610a22565b865550610b08565b601f198416610ab686610892565b60005b82811015610ade57848901518255600182019150602085019450602081019050610ab9565b86831015610afb5784890151610af7601f891682610a04565b8355505b6001600288020188555050505b50505050505056fea2646970667358221220a066f80be164cbb7391e59f1fdbc6e18a40ccfdf224b55a4371bbd8c91d8105964736f6c63430008110033",
  "linkReferences": {},
  "deployedLinkReferences": {}
}